{
  "contractName": "MicroPayment",
  "abi": [
    {
      "inputs": [
        {
          "internalType": "address",
          "name": "_rewardToken",
          "type": "address"
        }
      ],
      "stateMutability": "nonpayable",
      "type": "constructor"
    },
    {
      "anonymous": false,
      "inputs": [
        {
          "indexed": false,
          "internalType": "address",
          "name": "sender",
          "type": "address"
        },
        {
          "indexed": false,
          "internalType": "uint256",
          "name": "amount",
          "type": "uint256"
        }
      ],
      "name": "Burn",
      "type": "event"
    },
    {
      "anonymous": false,
      "inputs": [
        {
          "indexed": false,
          "internalType": "address",
          "name": "receiver",
          "type": "address"
        },
        {
          "indexed": false,
          "internalType": "uint256",
          "name": "amount",
          "type": "uint256"
        }
      ],
      "name": "Mint",
      "type": "event"
    },
    {
      "anonymous": false,
      "inputs": [
        {
          "indexed": false,
          "internalType": "address",
          "name": "sender",
          "type": "address"
        },
        {
          "indexed": false,
          "internalType": "address",
          "name": "receiver",
          "type": "address"
        },
        {
          "indexed": false,
          "internalType": "uint256",
          "name": "amount",
          "type": "uint256"
        },
        {
          "indexed": false,
          "internalType": "address",
          "name": "transactionReference",
          "type": "address"
        }
      ],
      "name": "Transfer",
      "type": "event"
    },
    {
      "inputs": [],
      "name": "owner",
      "outputs": [
        {
          "internalType": "address",
          "name": "",
          "type": "address"
        }
      ],
      "stateMutability": "view",
      "type": "function"
    },
    {
      "inputs": [
        {
          "internalType": "address",
          "name": "",
          "type": "address"
        },
        {
          "internalType": "uint256",
          "name": "",
          "type": "uint256"
        }
      ],
      "name": "transactionRecords",
      "outputs": [
        {
          "internalType": "address",
          "name": "sender",
          "type": "address"
        },
        {
          "internalType": "address",
          "name": "receiver",
          "type": "address"
        },
        {
          "internalType": "uint256",
          "name": "amount",
          "type": "uint256"
        },
        {
          "internalType": "address",
          "name": "transactionReference",
          "type": "address"
        },
        {
          "internalType": "string",
          "name": "transactionType",
          "type": "string"
        }
      ],
      "stateMutability": "view",
      "type": "function"
    },
    {
      "inputs": [
        {
          "internalType": "address",
          "name": "receiver",
          "type": "address"
        },
        {
          "internalType": "uint256",
          "name": "amount",
          "type": "uint256"
        }
      ],
      "name": "mint",
      "outputs": [],
      "stateMutability": "nonpayable",
      "type": "function"
    },
    {
      "inputs": [
        {
          "internalType": "address",
          "name": "sender",
          "type": "address"
        },
        {
          "internalType": "uint256",
          "name": "amount",
          "type": "uint256"
        }
      ],
      "name": "burn",
      "outputs": [],
      "stateMutability": "nonpayable",
      "type": "function"
    },
    {
      "inputs": [
        {
          "internalType": "address",
          "name": "sender",
          "type": "address"
        },
        {
          "internalType": "address",
          "name": "receiver",
          "type": "address"
        },
        {
          "internalType": "uint256",
          "name": "amount",
          "type": "uint256"
        },
        {
          "internalType": "address",
          "name": "transactionReference",
          "type": "address"
        }
      ],
      "name": "transfer",
      "outputs": [],
      "stateMutability": "nonpayable",
      "type": "function"
    }
  ],
  "bytecode": "0x608060405234801561001057600080fd5b50604051610b10380380610b1083398101604081905261002f91610062565b60008054336001600160a01b031991821617909155600180549091166001600160a01b0392909216919091179055610090565b600060208284031215610073578081fd5b81516001600160a01b0381168114610089578182fd5b9392505050565b610a718061009f6000396000f3fe608060405234801561001057600080fd5b50600436106100575760003560e01c806304b6219b1461005c57806340c10f19146100895780638da5cb5b1461009e5780639dc29fac146100c9578063f9ce7813146100dc575b600080fd5b61006f61006a366004610958565b6100ef565b604051610080959493929190610981565b60405180910390f35b61009c610097366004610958565b6101d6565b005b6000546100b1906001600160a01b031681565b6040516001600160a01b039091168152602001610080565b61009c6100d7366004610958565b610366565b61009c6100ea36600461090c565b6104ef565b6002602052816000526040600020818154811061010b57600080fd5b6000918252602090912060059091020180546001820154600283015460038401546004850180546001600160a01b039586169850938516965091949316929161015390610a00565b80601f016020809104026020016040519081016040528092919081815260200182805461017f90610a00565b80156101cc5780601f106101a1576101008083540402835291602001916101cc565b820191906000526020600020905b8154815290600101906020018083116101af57829003601f168201915b5050505050905085565b6000546001600160a01b031633146101ed57600080fd5b6001546040516340c10f1960e01b81526001600160a01b03848116600483015260248201849052909116906340c10f1990604401600060405180830381600087803b15801561023b57600080fd5b505af115801561024f573d6000803e3d6000fd5b5050505061025b61080d565b3381526001600160a01b038381166020808401828152604080860187815281518083018352600480825263135a5b9d60e21b828701526080890191825260009687526002808752938720805460018181018355918952978790208a516005909902018054988a166001600160a01b0319998a1617815595519086018054918a169189169190911790559151928401929092556060870151600384018054919097169516949094179094559251805185949361031b93908501920190610857565b5050604080516001600160a01b0386168152602081018590527f0f6798a560793a54c3bcfe86a93cde1e73087d944c0ea20544137d41213968859250015b60405180910390a1505050565b6000546001600160a01b0316331461037d57600080fd5b600154604051632770a7eb60e21b81526001600160a01b0384811660048301526024820184905290911690639dc29fac90604401600060405180830381600087803b1580156103cb57600080fd5b505af11580156103df573d6000803e3d6000fd5b505050506103eb61080d565b6001600160a01b03808416808352336020808501918252604080860187815281518083018352600480825263213ab93760e11b828601526080890191825260009687526002808652938720805460018181018355918952978690208a516005909902018054988a166001600160a01b0319998a1617815596519087018054918a1691891691909117905591519285019290925560608701516003850180549190971695169490941790945592518051859492936104ad93908501920190610857565b5050604080516001600160a01b0386168152602081018590527fcc16f5dbb4873280815c1ee09dbd06736cffcc184412cf7a71a0fdb75d397ca5925001610359565b6000546001600160a01b0316331461050657600080fd5b6001546040516352f950a960e11b81526001600160a01b0386811660048301528581166024830152604482018590529091169063a5f2a15290606401600060405180830381600087803b15801561055c57600080fd5b505af1158015610570573d6000803e3d6000fd5b5050505061057c61080d565b6001600160a01b03808616825284811660208301526040820184905282166060820181905261064d576000546001600160a01b03868116911614156105e2576040805180820190915260068152650546f702d55760d41b60208201526080820152610648565b6000546001600160a01b03858116911614156106235760408051808201909152600a8152692932b232b6b83a34b7b760b11b60208201526080820152610648565b6040805180820190915260088152672a3930b739b332b960c11b602082015260808201525b610674565b60408051808201909152600a81526914d95d1d1b195b595b9d60b21b602082015260808201525b6001600160a01b03808516600090815260026020818152604080842080546001818101835591865294839020875160059096020180549587166001600160a01b031996871617815587840151918101805492881692871692909217909155908601519281019290925560608501516003830180549190951693169290921790925560808301518051849392610710926004850192910190610857565b5050506001600160a01b03808616600090815260026020818152604080842080546001818101835591865294839020875160059096020180549587166001600160a01b0319968716178155878401519181018054928816928716929092179091559086015192810192909255606085015160038301805491909516931692909217909255608083015180518493926107af926004850192910190610857565b5050604080516001600160a01b038089168252808816602083015291810186905290841660608201527f5f2147fb558c977441fbdfebcf8cd5776606adc8da5ff95566fc2a4137e54d13915060800160405180910390a15050505050565b6040518060a0016040528060006001600160a01b0316815260200160006001600160a01b031681526020016000815260200160006001600160a01b03168152602001606081525090565b82805461086390610a00565b90600052602060002090601f01602090048101928261088557600085556108cb565b82601f1061089e57805160ff19168380011785556108cb565b828001600101855582156108cb579182015b828111156108cb5782518255916020019190600101906108b0565b506108d79291506108db565b5090565b5b808211156108d757600081556001016108dc565b80356001600160a01b038116811461090757600080fd5b919050565b60008060008060808587031215610921578384fd5b61092a856108f0565b9350610938602086016108f0565b92506040850135915061094d606086016108f0565b905092959194509250565b6000806040838503121561096a578182fd5b610973836108f0565b946020939093013593505050565b600060018060a01b038088168352602081881681850152866040850152818616606085015260a06080850152845191508160a0850152825b828110156109d55785810182015185820160c0015281016109b9565b828111156109e6578360c084870101525b5050601f01601f19169190910160c0019695505050505050565b600281046001821680610a1457607f821691505b60208210811415610a3557634e487b7160e01b600052602260045260246000fd5b5091905056fea2646970667358221220d29e80b4a5e071fd33d39f9af7df41a634506ddf8b8649728c8d2fd800e7c28764736f6c63430008020033",
  "immutableReferences": {},
  "source": "pragma solidity ^0.8.2;\n\nimport \"./IRewardToken.sol\";\n\ncontract MicroPayment {\n\n    address public owner; // authorize transfer between two parties\n\n    IRewardToken private rewardToken;\n\n    struct TransactionRecords {\n        address sender;\n        address receiver;\n        uint256 amount;\n        address transactionReference;\n        string transactionType;\n    }\n\n    mapping (address => TransactionRecords[]) public transactionRecords;\n\n    constructor (address _rewardToken) {\n        owner = msg.sender;\n\n        // Contract RewardToken needs to invoke the method setAuthorized(address)\n        // where \"address\" is the address of the contract MicroPayment\n        rewardToken = IRewardToken(_rewardToken);\n    }\n\n    event Mint(address receiver, uint256 amount);\n\n    function mint(address receiver, uint256 amount) public {\n        require(msg.sender == owner);\n        \n        rewardToken.mint(receiver, amount);\n\n        TransactionRecords memory record;\n        record.sender = msg.sender;\n        record.receiver = receiver;\n        record.amount = amount;\n        record.transactionType = 'Mint';\n\n        transactionRecords[receiver].push(record);\n        emit Mint(receiver, amount);\n\n    }\n\n    event Burn(address sender, uint256 amount);\n\n    function burn(address sender, uint256 amount) public {\n        require(msg.sender == owner);\n        \n        rewardToken.burn(sender, amount);\n\n        TransactionRecords memory record;\n        record.sender = sender;\n        record.receiver = msg.sender;\n        record.amount = amount;\n        record.transactionType = 'Burn';\n\n        transactionRecords[sender].push(record);\n        emit Burn(sender, amount);\n\n    }\n\n    event Transfer(address sender, address receiver, uint256 amount, address transactionReference);\n\n    function transfer(address sender, address receiver, uint256 amount, address transactionReference) public {\n        require(msg.sender == owner);\n        \n        rewardToken.transferTo(sender, receiver, amount);\n\n        TransactionRecords memory record;\n        record.sender = sender;\n        record.receiver = receiver;\n        record.amount = amount;\n        record.transactionReference = transactionReference;\n        if (transactionReference == address(0)) {\n            if (sender == owner) {\n                record.transactionType = 'Top-Up'; // if the bank (msg signer) is sending the funds\n            }\n            else if (receiver == owner) {\n                record.transactionType = 'Redemption'; // if the bank (msg signer) is receiving the funds\n            }\n            else {\n                record.transactionType = 'Transfer';\n            }\n        }\n        else {\n            record.transactionType = 'Settlement';\n        }\n        transactionRecords[receiver].push(record);\n        transactionRecords[sender].push(record);\n        emit Transfer(sender, receiver, amount, transactionReference);\n    }\n\n}\n",
  "sourcePath": "/home/trung/Work/reference/morphe/task/hyperledger-besu/a-besu-project/smartcontracts/MicroPayment.sol",
  "compiler": {
    "name": "solc",
    "version": "0.8.2+commit.661d1103.Emscripten.clang"
  },
  "schemaVersion": "3.3.4",
  "updatedAt": "2021-03-14T19:06:26.437Z",
  "devdoc": {
    "kind": "dev",
    "methods": {},
    "version": 1
  },
  "userdoc": {
    "kind": "user",
    "methods": {},
    "version": 1
  }
}