{
  "contractName": "RewardToken",
  "abi": [
    {
      "inputs": [
        {
          "internalType": "uint256",
          "name": "_initialSupply",
          "type": "uint256"
        },
        {
          "internalType": "string",
          "name": "_name",
          "type": "string"
        },
        {
          "internalType": "string",
          "name": "_symbol",
          "type": "string"
        },
        {
          "internalType": "uint256",
          "name": "_decimals",
          "type": "uint256"
        }
      ],
      "stateMutability": "nonpayable",
      "type": "constructor"
    },
    {
      "anonymous": false,
      "inputs": [
        {
          "indexed": false,
          "internalType": "address",
          "name": "_user",
          "type": "address"
        }
      ],
      "name": "AddedBlackList",
      "type": "event"
    },
    {
      "anonymous": false,
      "inputs": [
        {
          "indexed": true,
          "internalType": "address",
          "name": "owner",
          "type": "address"
        },
        {
          "indexed": true,
          "internalType": "address",
          "name": "spender",
          "type": "address"
        },
        {
          "indexed": false,
          "internalType": "uint256",
          "name": "value",
          "type": "uint256"
        }
      ],
      "name": "Approval",
      "type": "event"
    },
    {
      "anonymous": false,
      "inputs": [
        {
          "indexed": false,
          "internalType": "address",
          "name": "sender",
          "type": "address"
        },
        {
          "indexed": false,
          "internalType": "uint256",
          "name": "amount",
          "type": "uint256"
        }
      ],
      "name": "Burn",
      "type": "event"
    },
    {
      "anonymous": false,
      "inputs": [
        {
          "indexed": false,
          "internalType": "address",
          "name": "_blackListedUser",
          "type": "address"
        },
        {
          "indexed": false,
          "internalType": "uint256",
          "name": "_balance",
          "type": "uint256"
        }
      ],
      "name": "DestroyedBlackFunds",
      "type": "event"
    },
    {
      "anonymous": false,
      "inputs": [
        {
          "indexed": false,
          "internalType": "uint256",
          "name": "amount",
          "type": "uint256"
        }
      ],
      "name": "Issue",
      "type": "event"
    },
    {
      "anonymous": false,
      "inputs": [
        {
          "indexed": false,
          "internalType": "address",
          "name": "receiver",
          "type": "address"
        },
        {
          "indexed": false,
          "internalType": "uint256",
          "name": "amount",
          "type": "uint256"
        }
      ],
      "name": "Mint",
      "type": "event"
    },
    {
      "anonymous": false,
      "inputs": [
        {
          "indexed": false,
          "internalType": "uint256",
          "name": "feeBasisPoints",
          "type": "uint256"
        },
        {
          "indexed": false,
          "internalType": "uint256",
          "name": "maxFee",
          "type": "uint256"
        }
      ],
      "name": "Params",
      "type": "event"
    },
    {
      "anonymous": false,
      "inputs": [],
      "name": "Pause",
      "type": "event"
    },
    {
      "anonymous": false,
      "inputs": [
        {
          "indexed": false,
          "internalType": "uint256",
          "name": "amount",
          "type": "uint256"
        }
      ],
      "name": "Redeem",
      "type": "event"
    },
    {
      "anonymous": false,
      "inputs": [
        {
          "indexed": false,
          "internalType": "address",
          "name": "_user",
          "type": "address"
        }
      ],
      "name": "RemovedBlackList",
      "type": "event"
    },
    {
      "anonymous": false,
      "inputs": [
        {
          "indexed": true,
          "internalType": "address",
          "name": "from",
          "type": "address"
        },
        {
          "indexed": true,
          "internalType": "address",
          "name": "to",
          "type": "address"
        },
        {
          "indexed": false,
          "internalType": "uint256",
          "name": "value",
          "type": "uint256"
        }
      ],
      "name": "Transfer",
      "type": "event"
    },
    {
      "anonymous": false,
      "inputs": [],
      "name": "Unpause",
      "type": "event"
    },
    {
      "inputs": [],
      "name": "MAX_UINT",
      "outputs": [
        {
          "internalType": "uint256",
          "name": "",
          "type": "uint256"
        }
      ],
      "stateMutability": "view",
      "type": "function"
    },
    {
      "inputs": [],
      "name": "_totalSupply",
      "outputs": [
        {
          "internalType": "uint256",
          "name": "",
          "type": "uint256"
        }
      ],
      "stateMutability": "view",
      "type": "function"
    },
    {
      "inputs": [
        {
          "internalType": "address",
          "name": "_evilUser",
          "type": "address"
        }
      ],
      "name": "addBlackList",
      "outputs": [],
      "stateMutability": "nonpayable",
      "type": "function"
    },
    {
      "inputs": [],
      "name": "admin",
      "outputs": [
        {
          "internalType": "address",
          "name": "",
          "type": "address"
        }
      ],
      "stateMutability": "view",
      "type": "function"
    },
    {
      "inputs": [
        {
          "internalType": "address",
          "name": "",
          "type": "address"
        },
        {
          "internalType": "address",
          "name": "",
          "type": "address"
        }
      ],
      "name": "allowed",
      "outputs": [
        {
          "internalType": "uint256",
          "name": "",
          "type": "uint256"
        }
      ],
      "stateMutability": "view",
      "type": "function"
    },
    {
      "inputs": [],
      "name": "authorized",
      "outputs": [
        {
          "internalType": "address",
          "name": "",
          "type": "address"
        }
      ],
      "stateMutability": "view",
      "type": "function"
    },
    {
      "inputs": [
        {
          "internalType": "address",
          "name": "",
          "type": "address"
        }
      ],
      "name": "balances",
      "outputs": [
        {
          "internalType": "uint256",
          "name": "",
          "type": "uint256"
        }
      ],
      "stateMutability": "view",
      "type": "function"
    },
    {
      "inputs": [],
      "name": "basisPointsRate",
      "outputs": [
        {
          "internalType": "uint256",
          "name": "",
          "type": "uint256"
        }
      ],
      "stateMutability": "view",
      "type": "function"
    },
    {
      "inputs": [],
      "name": "decimals",
      "outputs": [
        {
          "internalType": "uint256",
          "name": "",
          "type": "uint256"
        }
      ],
      "stateMutability": "view",
      "type": "function"
    },
    {
      "inputs": [
        {
          "internalType": "address",
          "name": "_maker",
          "type": "address"
        }
      ],
      "name": "getBlackListStatus",
      "outputs": [
        {
          "internalType": "bool",
          "name": "",
          "type": "bool"
        }
      ],
      "stateMutability": "view",
      "type": "function"
    },
    {
      "inputs": [],
      "name": "getOwner",
      "outputs": [
        {
          "internalType": "address",
          "name": "",
          "type": "address"
        }
      ],
      "stateMutability": "view",
      "type": "function"
    },
    {
      "inputs": [
        {
          "internalType": "address",
          "name": "",
          "type": "address"
        }
      ],
      "name": "isBlackListed",
      "outputs": [
        {
          "internalType": "bool",
          "name": "",
          "type": "bool"
        }
      ],
      "stateMutability": "view",
      "type": "function"
    },
    {
      "inputs": [],
      "name": "maximumFee",
      "outputs": [
        {
          "internalType": "uint256",
          "name": "",
          "type": "uint256"
        }
      ],
      "stateMutability": "view",
      "type": "function"
    },
    {
      "inputs": [],
      "name": "name",
      "outputs": [
        {
          "internalType": "string",
          "name": "",
          "type": "string"
        }
      ],
      "stateMutability": "view",
      "type": "function"
    },
    {
      "inputs": [],
      "name": "owner",
      "outputs": [
        {
          "internalType": "address",
          "name": "",
          "type": "address"
        }
      ],
      "stateMutability": "view",
      "type": "function"
    },
    {
      "inputs": [],
      "name": "pause",
      "outputs": [],
      "stateMutability": "nonpayable",
      "type": "function"
    },
    {
      "inputs": [],
      "name": "paused",
      "outputs": [
        {
          "internalType": "bool",
          "name": "",
          "type": "bool"
        }
      ],
      "stateMutability": "view",
      "type": "function"
    },
    {
      "inputs": [
        {
          "internalType": "address",
          "name": "_clearedUser",
          "type": "address"
        }
      ],
      "name": "removeBlackList",
      "outputs": [],
      "stateMutability": "nonpayable",
      "type": "function"
    },
    {
      "inputs": [],
      "name": "symbol",
      "outputs": [
        {
          "internalType": "string",
          "name": "",
          "type": "string"
        }
      ],
      "stateMutability": "view",
      "type": "function"
    },
    {
      "inputs": [
        {
          "internalType": "address",
          "name": "newOwner",
          "type": "address"
        }
      ],
      "name": "transferOwnership",
      "outputs": [],
      "stateMutability": "nonpayable",
      "type": "function"
    },
    {
      "inputs": [],
      "name": "unpause",
      "outputs": [],
      "stateMutability": "nonpayable",
      "type": "function"
    },
    {
      "inputs": [
        {
          "internalType": "address",
          "name": "",
          "type": "address"
        }
      ],
      "name": "unsettledBalances",
      "outputs": [
        {
          "internalType": "uint256",
          "name": "",
          "type": "uint256"
        }
      ],
      "stateMutability": "view",
      "type": "function"
    },
    {
      "inputs": [
        {
          "internalType": "address",
          "name": "_authorized",
          "type": "address"
        }
      ],
      "name": "setAuthorized",
      "outputs": [],
      "stateMutability": "nonpayable",
      "type": "function"
    },
    {
      "inputs": [
        {
          "internalType": "address",
          "name": "_to",
          "type": "address"
        },
        {
          "internalType": "uint256",
          "name": "_value",
          "type": "uint256"
        }
      ],
      "name": "transfer",
      "outputs": [],
      "stateMutability": "nonpayable",
      "type": "function"
    },
    {
      "inputs": [
        {
          "internalType": "address",
          "name": "_from",
          "type": "address"
        },
        {
          "internalType": "address",
          "name": "_to",
          "type": "address"
        },
        {
          "internalType": "uint256",
          "name": "_value",
          "type": "uint256"
        }
      ],
      "name": "transferFrom",
      "outputs": [],
      "stateMutability": "nonpayable",
      "type": "function"
    },
    {
      "inputs": [
        {
          "internalType": "address",
          "name": "who",
          "type": "address"
        }
      ],
      "name": "balanceOf",
      "outputs": [
        {
          "internalType": "uint256",
          "name": "",
          "type": "uint256"
        }
      ],
      "stateMutability": "view",
      "type": "function"
    },
    {
      "inputs": [
        {
          "internalType": "address",
          "name": "_spender",
          "type": "address"
        },
        {
          "internalType": "uint256",
          "name": "_value",
          "type": "uint256"
        }
      ],
      "name": "approve",
      "outputs": [],
      "stateMutability": "nonpayable",
      "type": "function"
    },
    {
      "inputs": [
        {
          "internalType": "address",
          "name": "_owner",
          "type": "address"
        },
        {
          "internalType": "address",
          "name": "_spender",
          "type": "address"
        }
      ],
      "name": "allowance",
      "outputs": [
        {
          "internalType": "uint256",
          "name": "remaining",
          "type": "uint256"
        }
      ],
      "stateMutability": "view",
      "type": "function"
    },
    {
      "inputs": [],
      "name": "totalSupply",
      "outputs": [
        {
          "internalType": "uint256",
          "name": "",
          "type": "uint256"
        }
      ],
      "stateMutability": "view",
      "type": "function"
    },
    {
      "inputs": [
        {
          "internalType": "uint256",
          "name": "amount",
          "type": "uint256"
        }
      ],
      "name": "issue",
      "outputs": [],
      "stateMutability": "nonpayable",
      "type": "function"
    },
    {
      "inputs": [
        {
          "internalType": "uint256",
          "name": "amount",
          "type": "uint256"
        }
      ],
      "name": "redeem",
      "outputs": [],
      "stateMutability": "nonpayable",
      "type": "function"
    },
    {
      "inputs": [
        {
          "internalType": "uint256",
          "name": "newBasisPoints",
          "type": "uint256"
        },
        {
          "internalType": "uint256",
          "name": "newMaxFee",
          "type": "uint256"
        }
      ],
      "name": "setParams",
      "outputs": [],
      "stateMutability": "nonpayable",
      "type": "function"
    },
    {
      "inputs": [
        {
          "internalType": "address",
          "name": "_from",
          "type": "address"
        },
        {
          "internalType": "address",
          "name": "_to",
          "type": "address"
        },
        {
          "internalType": "uint256",
          "name": "_value",
          "type": "uint256"
        }
      ],
      "name": "transferTo",
      "outputs": [],
      "stateMutability": "nonpayable",
      "type": "function"
    },
    {
      "inputs": [
        {
          "internalType": "address",
          "name": "_owner",
          "type": "address"
        }
      ],
      "name": "balanceUnsettledOf",
      "outputs": [
        {
          "internalType": "uint256",
          "name": "balance",
          "type": "uint256"
        },
        {
          "internalType": "uint256",
          "name": "unsettledBalance",
          "type": "uint256"
        }
      ],
      "stateMutability": "view",
      "type": "function"
    },
    {
      "inputs": [
        {
          "internalType": "address",
          "name": "receiver",
          "type": "address"
        },
        {
          "internalType": "uint256",
          "name": "amount",
          "type": "uint256"
        }
      ],
      "name": "mint",
      "outputs": [],
      "stateMutability": "nonpayable",
      "type": "function"
    },
    {
      "inputs": [
        {
          "internalType": "address",
          "name": "sender",
          "type": "address"
        },
        {
          "internalType": "uint256",
          "name": "amount",
          "type": "uint256"
        }
      ],
      "name": "burn",
      "outputs": [],
      "stateMutability": "nonpayable",
      "type": "function"
    },
    {
      "inputs": [
        {
          "internalType": "address",
          "name": "newAdmin",
          "type": "address"
        }
      ],
      "name": "changeAdmin",
      "outputs": [],
      "stateMutability": "nonpayable",
      "type": "function"
    }
  ],
  "bytecode": "0x60806040526000805460ff60a01b1916815560038190556004553480156200002657600080fd5b5060405162001b6638038062001b66833981016040819052620000499162000232565b600080546001600160a01b031916331790556001849055825162000075906007906020860190620000d9565b5081516200008b906008906020850190620000d9565b506009555050600080546001600160a01b0390811682526002602052604082209290925554600a80546001600160a01b0319908116929093169182179055600b8054909216179055620002fe565b828054620000e790620002ab565b90600052602060002090601f0160209004810192826200010b576000855562000156565b82601f106200012657805160ff191683800117855562000156565b8280016001018555821562000156579182015b828111156200015657825182559160200191906001019062000139565b506200016492915062000168565b5090565b5b8082111562000164576000815560010162000169565b600082601f83011262000190578081fd5b81516001600160401b0380821115620001ad57620001ad620002e8565b604051601f8301601f19908116603f01168101908282118183101715620001d857620001d8620002e8565b81604052838152602092508683858801011115620001f4578485fd5b8491505b83821015620002175785820183015181830184015290820190620001f8565b838211156200022857848385830101525b9695505050505050565b6000806000806080858703121562000248578384fd5b845160208601519094506001600160401b038082111562000267578485fd5b62000275888389016200017f565b945060408701519150808211156200028b578384fd5b506200029a878288016200017f565b606096909601519497939650505050565b600281046001821680620002c057607f821691505b60208210811415620002e257634e487b7160e01b600052602260045260246000fd5b50919050565b634e487b7160e01b600052604160045260246000fd5b611858806200030e6000396000f3fe608060405234801561001057600080fd5b50600436106102275760003560e01c806370a0823111610130578063c0324c77116100b8578063e47d60601161007c578063e47d6060146104e4578063e4997dc514610507578063e5b5019a1461051a578063f2fde38b14610523578063f851a4401461053657610227565b8063c0324c771461048f578063cc872b66146104a2578063db006a75146104b5578063dd62ed3e146104c8578063dd644f72146104db57610227565b80638f283970116100ff5780638f2839701461043b57806395d89b411461044e5780639dc29fac14610456578063a5f2a15214610469578063a9059cbb1461047c57610227565b806370a08231146103fc5780638456cb591461040f578063893d20e8146104175780638da5cb5b1461042857610227565b8063313ce567116101b357806340c10f191161018257806340c10f191461035c578063456cb7c61461036f57806359bf1abe1461039a5780635c658165146103bd5780635c975abb146103e857610227565b8063313ce5671461033957806335390714146103425780633eaaf86b1461034b5780633f4ba83a1461035457610227565b806314fc2812116101fa57806314fc2812146102a057806318160ddd146102b357806323b872dd146102bb57806327e235e3146102ce57806330143732146102ee57610227565b806306fdde031461022c578063095ea7b31461024a5780630ecb93c01461025f57806314ba374f14610272575b600080fd5b610234610549565b60405161024191906115dc565b60405180910390f35b61025d61025836600461157a565b6105d7565b005b61025d61026d3660046114f3565b6105ff565b6102926102803660046114f3565b600c6020526000908152604090205481565b604051908152602001610241565b61025d6102ae3660046114f3565b610671565b600154610292565b61025d6102c936600461153f565b6106bd565b6102926102dc3660046114f3565b60026020526000908152604090205481565b6103246102fc3660046114f3565b6001600160a01b0316600090815260026020908152604080832054600c909252909120549091565b60408051928352602083019190915201610241565b61029260095481565b61029260045481565b61029260015481565b61025d610705565b61025d61036a36600461157a565b610768565b600b54610382906001600160a01b031681565b6040516001600160a01b039091168152602001610241565b6103ad6103a83660046114f3565b610821565b6040519015158152602001610241565b6102926103cb36600461150d565b600560209081526000928352604080842090915290825290205481565b6000546103ad90600160a01b900460ff1681565b61029261040a3660046114f3565b610843565b61025d610863565b6000546001600160a01b0316610382565b600054610382906001600160a01b031681565b61025d6104493660046114f3565b6108cd565b610234610912565b61025d61046436600461157a565b61091f565b61025d61047736600461153f565b6109f5565b61025d61048a36600461157a565b610c26565b61025d61049d3660046115bb565b610c68565b61025d6104b03660046115a3565b610cf5565b61025d6104c33660046115a3565b610dc6565b6102926104d636600461150d565b610e85565b61029260035481565b6103ad6104f23660046114f3565b60066020526000908152604090205460ff1681565b61025d6105153660046114f3565b610eb5565b61029260001981565b61025d6105313660046114f3565b610f1d565b600a54610382906001600160a01b031681565b60078054610556906117b1565b80601f0160208091040260200160405190810160405280929190818152602001828054610582906117b1565b80156105cf5780601f106105a4576101008083540402835291602001916105cf565b820191906000526020600020905b8154815290600101906020018083116105b257829003601f168201915b505050505081565b60406105e481600461162f565b3610156105f057600080fd5b6105fa8383610f63565b505050565b6000546001600160a01b0316331461061657600080fd5b6001600160a01b038116600081815260066020908152604091829020805460ff1916600117905590519182527f42e160154868087d6bfdc0ca23d96a1c1cfa32f1b72ba9ba27b69b98a0d819dc91015b60405180910390a150565b6000546001600160a01b0316331461068857600080fd5b6001600160a01b03811661069b57600080fd5b600b80546001600160a01b0319166001600160a01b0392909216919091179055565b600054600160a01b900460ff16156106d457600080fd5b6001600160a01b03831660009081526006602052604090205460ff16156106fa57600080fd5b6105fa838383611017565b6000546001600160a01b0316331461071c57600080fd5b600054600160a01b900460ff1661073257600080fd5b6000805460ff60a01b191681556040517f7805862f689e2f13df9f062ff482ad3ad112aca9e0847911ed832e158c525b339190a1565b600b546001600160a01b031633148061078b5750600a546001600160a01b031633145b61079457600080fd5b6001600160a01b038216600090815260026020526040812080548392906107bc90849061162f565b9250508190555080600160008282546107d5919061162f565b9091555050604080516001600160a01b0384168152602081018390527f0f6798a560793a54c3bcfe86a93cde1e73087d944c0ea20544137d412139688591015b60405180910390a15050565b6001600160a01b03811660009081526006602052604090205460ff165b919050565b6001600160a01b0381166000908152600260205260408120545b92915050565b6000546001600160a01b0316331461087a57600080fd5b600054600160a01b900460ff161561089157600080fd5b6000805460ff60a01b1916600160a01b1781556040517f6985a02210a168e66602d3235cb6db0e70f92b3ba4d376a33c0f3d9434bff6259190a1565b6000546001600160a01b031633146108e457600080fd5b6001600160a01b0381161561090f57600a80546001600160a01b0319166001600160a01b0383161790555b50565b60088054610556906117b1565b600b546001600160a01b03163314806109425750600a546001600160a01b031633145b61094b57600080fd5b6001600160a01b03821660009081526002602052604090205481111561097057600080fd5b6001600160a01b0382166000908152600260205260408120805483929061099890849061179a565b9250508190555080600160008282546109b1919061179a565b9091555050604080516001600160a01b0384168152602081018390527fcc16f5dbb4873280815c1ee09dbd06736cffcc184412cf7a71a0fdb75d397ca59101610815565b6060610a0281600461162f565b361015610a0e57600080fd5b600054600160a01b900460ff1615610a2557600080fd5b600b546001600160a01b0316331480610a485750600a546001600160a01b031633145b610a5157600080fd5b6000610a74612710610a6e600354866111e890919063ffffffff16565b9061126c565b9050600454811115610a8557506004545b6000610a9184836112c7565b6001600160a01b0387166000908152600260205260409020549091508111610af4576001600160a01b038616600090815260026020526040902054610ad690826112c7565b6001600160a01b038716600090815260026020526040902055610b34565b6001600160a01b0386166000908152600260205260408120819055610b1a908290611323565b6001600160a01b0387166000908152600c60205260409020555b6001600160a01b038516600090815260026020526040902054610b579082611323565b6001600160a01b0386166000908152600260205260409020558115610be357600080546001600160a01b0316815260026020526040902054610b999083611323565b600080546001600160a01b03908116825260026020908152604080842094909455915492518581529281169290891691600080516020611803833981519152910160405180910390a35b846001600160a01b0316866001600160a01b031660008051602061180383398151915283604051610c1691815260200190565b60405180910390a3505050505050565b600054600160a01b900460ff1615610c3d57600080fd5b3360009081526006602052604090205460ff1615610c5a57600080fd5b610c648282611382565b5050565b6000546001600160a01b03163314610c7f57600080fd5b60148210610c8c57600080fd5b60328110610c9957600080fd5b6003829055600954610cb790610cb090600a6116ad565b82906111e8565b60048190556003546040517fb044a1e409eac5c48e5af22d4af52670dd1a99059537a78b31b48c6500a6354e92610815928252602082015260400190565b6000546001600160a01b03163314610d0c57600080fd5b600154610d19828261162f565b11610d2357600080fd5b600080546001600160a01b0316815260026020526040902054610d46828261162f565b11610d5057600080fd5b600080546001600160a01b031681526002602052604081208054839290610d7890849061162f565b925050819055508060016000828254610d91919061162f565b90915550506040518181527fcb8241adb0c3fdb35b70c24ce35c5eb0c17af7431c99f827d44a445ca624176a90602001610666565b6000546001600160a01b03163314610ddd57600080fd5b806001541015610dec57600080fd5b600080546001600160a01b0316815260026020526040902054811115610e1157600080fd5b8060016000828254610e23919061179a565b9091555050600080546001600160a01b031681526002602052604081208054839290610e5090849061179a565b90915550506040518181527f702d5967f45f6513a38ffc42d6ba9bf230bd40e8f53b16363c7eb4fd2deb9a4490602001610666565b6001600160a01b0380831660009081526005602090815260408083209385168352929052908120545b9392505050565b6000546001600160a01b03163314610ecc57600080fd5b6001600160a01b038116600081815260066020908152604091829020805460ff1916905590519182527fd7e9ec6e6ecd65492dce6bf513cd6867560d49544421d0783ddf06e76c24470c9101610666565b6000546001600160a01b03163314610f3457600080fd5b6001600160a01b0381161561090f57600080546001600160a01b0383166001600160a01b031990911617905550565b6040610f7081600461162f565b361015610f7c57600080fd5b8115801590610fad57503360009081526005602090815260408083206001600160a01b038716845290915290205415155b15610fb757600080fd5b3360008181526005602090815260408083206001600160a01b03881680855290835292819020869055518581529192917f8c5be1e5ebec7d5bd14f71427d1e84f3dd0314c0f7b2291e5b200ac8c7c3b925910160405180910390a3505050565b606061102481600461162f565b36101561103057600080fd5b6001600160a01b038416600090815260056020908152604080832033845290915281205460035490919061106d9061271090610a6e9087906111e8565b905060045481111561107e57506004545b6000198210156110b75761109282856112c7565b6001600160a01b03871660009081526005602090815260408083203384529091529020555b60006110c385836112c7565b6001600160a01b0388166000908152600260205260409020549091506110e990866112c7565b6001600160a01b0380891660009081526002602052604080822093909355908816815220546111189082611323565b6001600160a01b03871660009081526002602052604090205581156111a457600080546001600160a01b031681526002602052604090205461115a9083611323565b600080546001600160a01b039081168252600260209081526040808420949094559154925185815292811692908a1691600080516020611803833981519152910160405180910390a35b856001600160a01b0316876001600160a01b0316600080516020611803833981519152836040516111d791815260200190565b60405180910390a350505050505050565b6000826111f75750600061085d565b6000611203838561177b565b9050826112108583611647565b14610eae5760405162461bcd60e51b815260206004820152602160248201527f536166654d6174683a206d756c7469706c69636174696f6e206f766572666c6f6044820152607760f81b60648201526084015b60405180910390fd5b60008082116112bd5760405162461bcd60e51b815260206004820152601a60248201527f536166654d6174683a206469766973696f6e206279207a65726f0000000000006044820152606401611263565b610eae8284611647565b6000828211156113195760405162461bcd60e51b815260206004820152601e60248201527f536166654d6174683a207375627472616374696f6e206f766572666c6f7700006044820152606401611263565b610eae828461179a565b600080611330838561162f565b905083811015610eae5760405162461bcd60e51b815260206004820152601b60248201527f536166654d6174683a206164646974696f6e206f766572666c6f7700000000006044820152606401611263565b604061138f81600461162f565b36101561139b57600080fd5b60006113b8612710610a6e600354866111e890919063ffffffff16565b90506004548111156113c957506004545b60006113d584836112c7565b336000908152600260205260409020549091506113f290856112c7565b33600090815260026020526040808220929092556001600160a01b0387168152205461141e9082611323565b6001600160a01b03861660009081526002602052604090205581156114a757600080546001600160a01b03168152600260205260409020546114609083611323565b600080546001600160a01b03908116825260026020908152604080842094909455915492518581529216913391600080516020611803833981519152910160405180910390a35b6040518181526001600160a01b0386169033906000805160206118038339815191529060200160405180910390a35050505050565b80356001600160a01b038116811461083e57600080fd5b600060208284031215611504578081fd5b610eae826114dc565b6000806040838503121561151f578081fd5b611528836114dc565b9150611536602084016114dc565b90509250929050565b600080600060608486031215611553578081fd5b61155c846114dc565b925061156a602085016114dc565b9150604084013590509250925092565b6000806040838503121561158c578182fd5b611595836114dc565b946020939093013593505050565b6000602082840312156115b4578081fd5b5035919050565b600080604083850312156115cd578182fd5b50508035926020909101359150565b6000602080835283518082850152825b81811015611608578581018301518582016040015282016115ec565b818111156116195783604083870101525b50601f01601f1916929092016040019392505050565b60008219821115611642576116426117ec565b500190565b60008261166257634e487b7160e01b81526012600452602481fd5b500490565b80825b600180861161167957506116a4565b81870482111561168b5761168b6117ec565b8086161561169857918102915b9490941c93800261166a565b94509492505050565b6000610eae60001984846000826116c657506001610eae565b816116d357506000610eae565b81600181146116e957600281146116f357611720565b6001915050610eae565b60ff841115611704576117046117ec565b6001841b91508482111561171a5761171a6117ec565b50610eae565b5060208310610133831016604e8410600b8410161715611753575081810a8381111561174e5761174e6117ec565b610eae565b6117608484846001611667565b808604821115611772576117726117ec565b02949350505050565b6000816000190483118215151615611795576117956117ec565b500290565b6000828210156117ac576117ac6117ec565b500390565b6002810460018216806117c557607f821691505b602082108114156117e657634e487b7160e01b600052602260045260246000fd5b50919050565b634e487b7160e01b600052601160045260246000fdfeddf252ad1be2c89b69c2b068fc378daa952ba7f163c4a11628f55a4df523b3efa26469706673582212201e6f1e925a5110784de279d50331c1e4bd13782d9091e37668c9c65173a6a1b664736f6c63430008020033",
  "immutableReferences": {},
  "source": "// SPDX-License-Identifier: MIT\n\npragma solidity ^0.8.2;\n\n/**\n * @dev Wrappers over Solidity's arithmetic operations with added overflow\n * checks.\n *\n * Arithmetic operations in Solidity wrap on overflow. This can easily result\n * in bugs, because programmers usually assume that an overflow raises an\n * error, which is the standard behavior in high level programming languages.\n * `SafeMath` restores this intuition by reverting the transaction when an\n * operation overflows.\n *\n * Using this library instead of the unchecked operations eliminates an entire\n * class of bugs, so it's recommended to use it always.\n */\nlibrary SafeMath {\n    /**\n     * @dev Returns the addition of two unsigned integers, with an overflow flag.\n     *\n     * _Available since v3.4._\n     */\n    function tryAdd(uint256 a, uint256 b) internal pure returns (bool, uint256) {\n        uint256 c = a + b;\n        if (c < a) return (false, 0);\n        return (true, c);\n    }\n\n    /**\n     * @dev Returns the substraction of two unsigned integers, with an overflow flag.\n     *\n     * _Available since v3.4._\n     */\n    function trySub(uint256 a, uint256 b) internal pure returns (bool, uint256) {\n        if (b > a) return (false, 0);\n        return (true, a - b);\n    }\n\n    /**\n     * @dev Returns the multiplication of two unsigned integers, with an overflow flag.\n     *\n     * _Available since v3.4._\n     */\n    function tryMul(uint256 a, uint256 b) internal pure returns (bool, uint256) {\n        // Gas optimization: this is cheaper than requiring 'a' not being zero, but the\n        // benefit is lost if 'b' is also tested.\n        // See: https://github.com/OpenZeppelin/openzeppelin-contracts/pull/522\n        if (a == 0) return (true, 0);\n        uint256 c = a * b;\n        if (c / a != b) return (false, 0);\n        return (true, c);\n    }\n\n    /**\n     * @dev Returns the division of two unsigned integers, with a division by zero flag.\n     *\n     * _Available since v3.4._\n     */\n    function tryDiv(uint256 a, uint256 b) internal pure returns (bool, uint256) {\n        if (b == 0) return (false, 0);\n        return (true, a / b);\n    }\n\n    /**\n     * @dev Returns the remainder of dividing two unsigned integers, with a division by zero flag.\n     *\n     * _Available since v3.4._\n     */\n    function tryMod(uint256 a, uint256 b) internal pure returns (bool, uint256) {\n        if (b == 0) return (false, 0);\n        return (true, a % b);\n    }\n\n    /**\n     * @dev Returns the addition of two unsigned integers, reverting on\n     * overflow.\n     *\n     * Counterpart to Solidity's `+` operator.\n     *\n     * Requirements:\n     *\n     * - Addition cannot overflow.\n     */\n    function add(uint256 a, uint256 b) internal pure returns (uint256) {\n        uint256 c = a + b;\n        require(c >= a, \"SafeMath: addition overflow\");\n        return c;\n    }\n\n    /**\n     * @dev Returns the subtraction of two unsigned integers, reverting on\n     * overflow (when the result is negative).\n     *\n     * Counterpart to Solidity's `-` operator.\n     *\n     * Requirements:\n     *\n     * - Subtraction cannot overflow.\n     */\n    function sub(uint256 a, uint256 b) internal pure returns (uint256) {\n        require(b <= a, \"SafeMath: subtraction overflow\");\n        return a - b;\n    }\n\n    /**\n     * @dev Returns the multiplication of two unsigned integers, reverting on\n     * overflow.\n     *\n     * Counterpart to Solidity's `*` operator.\n     *\n     * Requirements:\n     *\n     * - Multiplication cannot overflow.\n     */\n    function mul(uint256 a, uint256 b) internal pure returns (uint256) {\n        if (a == 0) return 0;\n        uint256 c = a * b;\n        require(c / a == b, \"SafeMath: multiplication overflow\");\n        return c;\n    }\n\n    /**\n     * @dev Returns the integer division of two unsigned integers, reverting on\n     * division by zero. The result is rounded towards zero.\n     *\n     * Counterpart to Solidity's `/` operator. Note: this function uses a\n     * `revert` opcode (which leaves remaining gas untouched) while Solidity\n     * uses an invalid opcode to revert (consuming all remaining gas).\n     *\n     * Requirements:\n     *\n     * - The divisor cannot be zero.\n     */\n    function div(uint256 a, uint256 b) internal pure returns (uint256) {\n        require(b > 0, \"SafeMath: division by zero\");\n        return a / b;\n    }\n\n    /**\n     * @dev Returns the remainder of dividing two unsigned integers. (unsigned integer modulo),\n     * reverting when dividing by zero.\n     *\n     * Counterpart to Solidity's `%` operator. This function uses a `revert`\n     * opcode (which leaves remaining gas untouched) while Solidity uses an\n     * invalid opcode to revert (consuming all remaining gas).\n     *\n     * Requirements:\n     *\n     * - The divisor cannot be zero.\n     */\n    function mod(uint256 a, uint256 b) internal pure returns (uint256) {\n        require(b > 0, \"SafeMath: modulo by zero\");\n        return a % b;\n    }\n\n    /**\n     * @dev Returns the subtraction of two unsigned integers, reverting with custom message on\n     * overflow (when the result is negative).\n     *\n     * CAUTION: This function is deprecated because it requires allocating memory for the error\n     * message unnecessarily. For custom revert reasons use {trySub}.\n     *\n     * Counterpart to Solidity's `-` operator.\n     *\n     * Requirements:\n     *\n     * - Subtraction cannot overflow.\n     */\n    function sub(uint256 a, uint256 b, string memory errorMessage) internal pure returns (uint256) {\n        require(b <= a, errorMessage);\n        return a - b;\n    }\n\n    /**\n     * @dev Returns the integer division of two unsigned integers, reverting with custom message on\n     * division by zero. The result is rounded towards zero.\n     *\n     * CAUTION: This function is deprecated because it requires allocating memory for the error\n     * message unnecessarily. For custom revert reasons use {tryDiv}.\n     *\n     * Counterpart to Solidity's `/` operator. Note: this function uses a\n     * `revert` opcode (which leaves remaining gas untouched) while Solidity\n     * uses an invalid opcode to revert (consuming all remaining gas).\n     *\n     * Requirements:\n     *\n     * - The divisor cannot be zero.\n     */\n    function div(uint256 a, uint256 b, string memory errorMessage) internal pure returns (uint256) {\n        require(b > 0, errorMessage);\n        return a / b;\n    }\n\n    /**\n     * @dev Returns the remainder of dividing two unsigned integers. (unsigned integer modulo),\n     * reverting with custom message when dividing by zero.\n     *\n     * CAUTION: This function is deprecated because it requires allocating memory for the error\n     * message unnecessarily. For custom revert reasons use {tryMod}.\n     *\n     * Counterpart to Solidity's `%` operator. This function uses a `revert`\n     * opcode (which leaves remaining gas untouched) while Solidity uses an\n     * invalid opcode to revert (consuming all remaining gas).\n     *\n     * Requirements:\n     *\n     * - The divisor cannot be zero.\n     */\n    function mod(uint256 a, uint256 b, string memory errorMessage) internal pure returns (uint256) {\n        require(b > 0, errorMessage);\n        return a % b;\n    }\n}\n\n/**\n * @title Ownable\n * @dev The Ownable contract has an owner address, and provides basic authorization control\n * functions, this simplifies the implementation of \"user permissions\".\n */\ncontract Ownable {\n    address public owner;\n\n    /**\n      * @dev The Ownable constructor sets the original `owner` of the contract to the sender\n      * account.\n      */\n    constructor() {\n        owner = msg.sender;\n    }\n\n    /**\n      * @dev Throws if called by any account other than the owner.\n      */\n    modifier onlyOwner() {\n        require(msg.sender == owner);\n        _;\n    }\n\n    /**\n    * @dev Allows the current owner to transfer control of the contract to a newOwner.\n    * @param newOwner The address to transfer ownership to.\n    */\n    function transferOwnership(address newOwner) public onlyOwner {\n        if (newOwner != address(0)) {\n            owner = newOwner;\n        }\n    }\n\n}\n/**\n * @title ERC20Basic\n * @dev Simpler version of ERC20 interface\n * @dev see https://github.com/ethereum/EIPs/issues/20\n */\nabstract contract ERC20Basic {\n    uint public _totalSupply;\n    function totalSupply() public virtual view returns (uint);\n    function balanceOf(address who) public virtual view returns (uint);\n    function transfer(address to, uint value) public virtual;\n    event Transfer(address indexed from, address indexed to, uint value);\n}\n\n/**\n * @title ERC20 interface\n * @dev see https://github.com/ethereum/EIPs/issues/20\n */\nabstract contract ERC20 is ERC20Basic {\n    function allowance(address owner, address spender) public virtual view returns (uint);\n    function transferFrom(address from, address to, uint value) public virtual;\n    function approve(address spender, uint value) public virtual;\n    event Approval(address indexed owner, address indexed spender, uint value);\n}\n\n/**\n * @title Basic token\n * @dev Basic version of StandardToken, with no allowances.\n */\nabstract contract BasicToken is Ownable, ERC20Basic {\n    using SafeMath for uint;\n\n    mapping(address => uint) public balances;\n\n    // additional variables for use if transaction fees ever became necessary\n    uint public basisPointsRate = 0;\n    uint public maximumFee = 0;\n\n    /**\n    * @dev Fix for the ERC20 short address attack.\n    */\n    modifier onlyPayloadSize(uint size) {\n        require(!(msg.data.length < size + 4));\n        _;\n    }\n\n    /**\n    * @dev transfer token for a specified address\n    * @param _to The address to transfer to.\n    * @param _value The amount to be transferred.\n    */\n    function transfer(address _to, uint _value) public virtual override onlyPayloadSize(2 * 32) {\n        uint fee = (_value.mul(basisPointsRate)).div(10000);\n        if (fee > maximumFee) {\n            fee = maximumFee;\n        }\n        uint sendAmount = _value.sub(fee);\n        balances[msg.sender] = balances[msg.sender].sub(_value);\n        balances[_to] = balances[_to].add(sendAmount);\n        if (fee > 0) {\n            balances[owner] = balances[owner].add(fee);\n            emit Transfer(msg.sender, owner, fee);\n        }\n        emit Transfer(msg.sender, _to, sendAmount);\n    }\n\n    /**\n    * @dev Gets the balance of the specified address.\n    * @param _owner The address to query the the balance of.\n    * return An uint representing the amount owned by the passed address.\n    */\n    function balanceOf(address _owner) public virtual override view returns (uint balance) {\n        return balances[_owner];\n    }\n\n}\n\n/**\n * @title Standard ERC20 token\n *\n * @dev Implementation of the basic standard token.\n * @dev https://github.com/ethereum/EIPs/issues/20\n * @dev Based oncode by FirstBlood: https://github.com/Firstbloodio/token/blob/master/smart_contract/FirstBloodToken.sol\n */\nabstract contract StandardToken is BasicToken, ERC20 {\n    using SafeMath for uint;\n\n    mapping (address => mapping (address => uint)) public allowed;\n\n    uint public constant MAX_UINT = 2**256 - 1;\n\n    /**\n    * @dev Transfer tokens from one address to another\n    * @param _from address The address which you want to send tokens from\n    * @param _to address The address which you want to transfer to\n    * @param _value uint the amount of tokens to be transferred\n    */\n    function transferFrom(address _from, address _to, uint _value) public virtual override onlyPayloadSize(3 * 32) {\n        uint _allowance = allowed[_from][msg.sender];\n\n        // Check is not needed because sub(_allowance, _value) will already throw if this condition is not met\n        // if (_value > _allowance) throw;\n\n        uint fee = (_value.mul(basisPointsRate)).div(10000);\n        if (fee > maximumFee) {\n            fee = maximumFee;\n        }\n        if (_allowance < MAX_UINT) {\n            allowed[_from][msg.sender] = _allowance.sub(_value);\n        }\n        uint sendAmount = _value.sub(fee);\n        balances[_from] = balances[_from].sub(_value);\n        balances[_to] = balances[_to].add(sendAmount);\n        if (fee > 0) {\n            balances[owner] = balances[owner].add(fee);\n            Transfer(_from, owner, fee);\n        }\n        Transfer(_from, _to, sendAmount);\n    }\n\n    /**\n    * @dev Approve the passed address to spend the specified amount of tokens on behalf of msg.sender.\n    * @param _spender The address which will spend the funds.\n    * @param _value The amount of tokens to be spent.\n    */\n    function approve(address _spender, uint _value) public virtual override onlyPayloadSize(2 * 32) {\n\n        // To change the approve amount you first have to reduce the addresses`\n        //  allowance to zero by calling `approve(_spender, 0)` if it is not\n        //  already 0 to mitigate the race condition described here:\n        //  https://github.com/ethereum/EIPs/issues/20#issuecomment-263524729\n        require(!((_value != 0) && (allowed[msg.sender][_spender] != 0)));\n\n        allowed[msg.sender][_spender] = _value;\n        Approval(msg.sender, _spender, _value);\n    }\n\n    /**\n    * @dev Function to check the amount of tokens than an owner allowed to a spender.\n    * @param _owner address The address which owns the funds.\n    * @param _spender address The address which will spend the funds.\n    * return A uint specifying the amount of tokens still available for the spender.\n    */\n    function allowance(address _owner, address _spender) public virtual override view returns (uint remaining) {\n        return allowed[_owner][_spender];\n    }\n\n}\n\n\n/**\n * @title Pausable\n * @dev Base contract which allows children to implement an emergency stop mechanism.\n */\ncontract Pausable is Ownable {\n  event Pause();\n  event Unpause();\n\n  bool public paused = false;\n\n\n  /**\n   * @dev Modifier to make a function callable only when the contract is not paused.\n   */\n  modifier whenNotPaused() {\n    require(!paused);\n    _;\n  }\n\n  /**\n   * @dev Modifier to make a function callable only when the contract is paused.\n   */\n  modifier whenPaused() {\n    require(paused);\n    _;\n  }\n\n  /**\n   * @dev called by the owner to pause, triggers stopped state\n   */\n  function pause() onlyOwner whenNotPaused public {\n    paused = true;\n    Pause();\n  }\n\n  /**\n   * @dev called by the owner to unpause, returns to normal state\n   */\n  function unpause() onlyOwner whenPaused public {\n    paused = false;\n    Unpause();\n  }\n}\n\ncontract BlackList is Ownable {\n\n    /////// Getters to allow the same blacklist \n    function getBlackListStatus(address _maker) external view returns (bool) {\n        return isBlackListed[_maker];\n    }\n\n    function getOwner() external view returns (address) {\n        return owner;\n    }\n\n    mapping (address => bool) public isBlackListed;\n\n    function addBlackList (address _evilUser) public onlyOwner {\n        isBlackListed[_evilUser] = true;\n        AddedBlackList(_evilUser);\n    }\n\n    function removeBlackList (address _clearedUser) public onlyOwner {\n        isBlackListed[_clearedUser] = false;\n        RemovedBlackList(_clearedUser);\n    }\n\n    /*function destroyBlackFunds (address _blackListedUser) public onlyOwner {\n        require(isBlackListed[_blackListedUser]);\n        uint dirtyFunds = balanceOf(_blackListedUser);\n        balances[_blackListedUser] = 0;\n        _totalSupply -= dirtyFunds;\n        DestroyedBlackFunds(_blackListedUser, dirtyFunds);\n    }*/\n\n    event DestroyedBlackFunds(address _blackListedUser, uint _balance);\n\n    event AddedBlackList(address _user);\n\n    event RemovedBlackList(address _user);\n\n}\n\ncontract RewardToken is Pausable, StandardToken, BlackList {\n    using SafeMath for uint;\n\n    string public name;\n    string public symbol;\n    uint public decimals;\n    address public admin;\n    address public authorized;\n\n\n    //\n    mapping(address => uint) public unsettledBalances;\n\n\n    //  The contract can be initialized with a number of tokens\n    //  All the tokens are deposited to the owner address\n    //\n    // @param _balance Initial supply of the contract\n    // @param _name Token Name\n    // @param _symbol Token symbol\n    // @param _decimals Token decimals\n    constructor(uint _initialSupply, string memory _name, string memory _symbol, uint _decimals) {\n        _totalSupply = _initialSupply;\n        name = _name;\n        symbol = _symbol;\n        decimals = _decimals;\n        balances[owner] = _initialSupply;\n        admin = owner;\n        authorized = owner;\n    }\n\n    modifier onlyAuthorized() {\n        require(msg.sender == authorized || msg.sender == admin);\n        _;\n    }\n\n    function setAuthorized(address _authorized) public onlyOwner {\n        require(_authorized != address(0));\n        authorized = _authorized;\n    }\n\n\n    function transfer(address _to, uint _value) public override whenNotPaused {\n        require(!isBlackListed[msg.sender]);\n\n        return super.transfer(_to, _value);\n\n    }\n\n    function transferFrom(address _from, address _to, uint _value) public override whenNotPaused {\n        require(!isBlackListed[_from]);\n            \n        return super.transferFrom(_from, _to, _value);\n\n    }\n\n    function balanceOf(address who) public view override returns (uint) {\n\n        return super.balanceOf(who);\n    \n    }\n\n    function approve(address _spender, uint _value) public override onlyPayloadSize(2 * 32) {\n\n        return super.approve(_spender, _value);\n\n    }\n\n    function allowance(address _owner, address _spender) public override view returns (uint remaining) {\n\n        return super.allowance(_owner, _spender);\n\n    }\n\n\n\n    function totalSupply() public override view returns (uint) {\n\n        return _totalSupply;\n\n    }\n\n    // Issue a new amount of tokens\n    // these tokens are deposited into the owner address\n    //\n    // @param _amount Number of tokens to be issued\n    function issue(uint amount) public onlyOwner {\n        require(_totalSupply + amount > _totalSupply);\n        require(balances[owner] + amount > balances[owner]);\n\n        balances[owner] += amount;\n        _totalSupply += amount;\n        Issue(amount);\n    }\n\n    // Redeem tokens.\n    // These tokens are withdrawn from the owner address\n    // if the balance must be enough to cover the redeem\n    // or the call will fail.\n    // @param _amount Number of tokens to be issued\n    function redeem(uint amount) public onlyOwner {\n        require(_totalSupply >= amount);\n        require(balances[owner] >= amount);\n\n        _totalSupply -= amount;\n        balances[owner] -= amount;\n        Redeem(amount);\n    }\n\n    function setParams(uint newBasisPoints, uint newMaxFee) public onlyOwner {\n        // Ensure transparency by hardcoding limit beyond which fees can never be added\n        require(newBasisPoints < 20);\n        require(newMaxFee < 50);\n\n        basisPointsRate = newBasisPoints;\n        maximumFee = newMaxFee.mul(10**decimals);\n\n        Params(basisPointsRate, maximumFee);\n    }\n\n        /**\n    * @dev Transfer tokens from one address to another\n    * @param _from address The address which you want to send tokens from\n    * @param _to address The address which you want to transfer to\n    * @param _value uint the amount of tokens to be transferred\n    */\n    function transferTo(address _from, address _to, uint _value) public onlyPayloadSize(3 * 32) whenNotPaused onlyAuthorized {\n\n        // Check is not needed because sub(_allowance, _value) will already throw if this condition is not met\n        // if (_value > _allowance) throw;\n\n        uint fee = (_value.mul(basisPointsRate)).div(10000);\n        if (fee > maximumFee) {\n            fee = maximumFee;\n        }\n\n        uint sendAmount = _value.sub(fee);\n\n        // if no enough balance, need to update unsettled balance\n        if (sendAmount <= balances[_from]) {\n            balances[_from] = balances[_from].sub(sendAmount);\n        } else {\n            balances[_from] = 0;\n            unsettledBalances[_from] = sendAmount.add(balances[_from]); \n        }\n\n\n        balances[_to] = balances[_to].add(sendAmount);\n        if (fee > 0) {\n            balances[owner] = balances[owner].add(fee);\n            Transfer(_from, owner, fee);\n        }\n        Transfer(_from, _to, sendAmount);\n    }\n\n\n    /**\n    * @dev Gets the balance of the specified address.\n    * @param _owner The address to query the the balance of.\n    * return the balance and unsettled balance owned by the passed address.\n    */\n    function balanceUnsettledOf(address _owner) public view returns (uint balance, uint unsettledBalance) {\n        return (balances[_owner], unsettledBalances[_owner]);\n    }\n\n    // Mint amount of tokens\n    // these tokens are deposited into the receive address\n    // these tokens are added to _totalSupply\n    // @param receiver the address to which token will be deposited\n    // @param _amount Number of tokens to be minted\n    function mint(address receiver, uint256 amount) public onlyAuthorized {\n        balances[receiver] += amount;\n        _totalSupply += amount;\n\n        emit Mint(receiver, amount);\n\n    }\n\n    // Burn amount of tokens\n    // these tokens are deducted from the receive address\n    // these tokens are added to _totalSupply\n    // @param sender the address from which token will be burned\n    // @param amount Number of tokens to be burned\n    function burn(address sender, uint256 amount) public onlyAuthorized {\n        require(balances[sender] >= amount);\n        balances[sender] -= amount;\n        _totalSupply -= amount;\n\n        emit Burn(sender, amount);\n\n    }\n\n    /**\n    * @dev change admin\n    * @param newAdmin The address of new admin\n    */\n    function changeAdmin(address newAdmin) public onlyOwner {\n        if (newAdmin != address(0)) {\n            admin = newAdmin;\n        }\n    }\n\n    // Called when new tokens are minted\n    event Burn(address sender, uint256 amount);\n\n    // Called when new tokens are minted\n    event Mint(address receiver, uint256 amount);\n\n    // Called when new token are issued\n    event Issue(uint amount);\n\n    // Called when tokens are redeemed\n    event Redeem(uint amount);\n\n    // Called if contract ever adds fees\n    event Params(uint feeBasisPoints, uint maxFee);\n}\n",
  "sourcePath": "/home/trung/Work/reference/morphe/task/hyperledger-besu/a-besu-project/smartcontracts/RewardToken.sol",
  "compiler": {
    "name": "solc",
    "version": "0.8.2+commit.661d1103.Emscripten.clang"
  },
  "schemaVersion": "3.3.4",
  "updatedAt": "2021-03-14T19:06:26.551Z",
  "devdoc": {
    "kind": "dev",
    "methods": {
      "allowance(address,address)": {
        "details": "Function to check the amount of tokens than an owner allowed to a spender.",
        "params": {
          "_owner": "address The address which owns the funds.",
          "_spender": "address The address which will spend the funds. return A uint specifying the amount of tokens still available for the spender."
        }
      },
      "approve(address,uint256)": {
        "details": "Approve the passed address to spend the specified amount of tokens on behalf of msg.sender.",
        "params": {
          "_spender": "The address which will spend the funds.",
          "_value": "The amount of tokens to be spent."
        }
      },
      "balanceUnsettledOf(address)": {
        "details": "Gets the balance of the specified address.",
        "params": {
          "_owner": "The address to query the the balance of. return the balance and unsettled balance owned by the passed address."
        }
      },
      "changeAdmin(address)": {
        "details": "change admin",
        "params": {
          "newAdmin": "The address of new admin"
        }
      },
      "pause()": {
        "details": "called by the owner to pause, triggers stopped state"
      },
      "transfer(address,uint256)": {
        "details": "transfer token for a specified address",
        "params": {
          "_to": "The address to transfer to.",
          "_value": "The amount to be transferred."
        }
      },
      "transferFrom(address,address,uint256)": {
        "details": "Transfer tokens from one address to another",
        "params": {
          "_from": "address The address which you want to send tokens from",
          "_to": "address The address which you want to transfer to",
          "_value": "uint the amount of tokens to be transferred"
        }
      },
      "transferOwnership(address)": {
        "details": "Allows the current owner to transfer control of the contract to a newOwner.",
        "params": {
          "newOwner": "The address to transfer ownership to."
        }
      },
      "transferTo(address,address,uint256)": {
        "details": "Transfer tokens from one address to another",
        "params": {
          "_from": "address The address which you want to send tokens from",
          "_to": "address The address which you want to transfer to",
          "_value": "uint the amount of tokens to be transferred"
        }
      },
      "unpause()": {
        "details": "called by the owner to unpause, returns to normal state"
      }
    },
    "version": 1
  },
  "userdoc": {
    "kind": "user",
    "methods": {},
    "version": 1
  }
}