{
  "contractName": "MicroPayment",
  "abi": [
    {
      "inputs": [
        {
          "internalType": "address",
          "name": "_rewardToken",
          "type": "address"
        }
      ],
      "stateMutability": "nonpayable",
      "type": "constructor"
    },
    {
      "anonymous": false,
      "inputs": [
        {
          "indexed": false,
          "internalType": "address",
          "name": "sender",
          "type": "address"
        },
        {
          "indexed": false,
          "internalType": "address",
          "name": "receiver",
          "type": "address"
        },
        {
          "indexed": false,
          "internalType": "uint256",
          "name": "amount",
          "type": "uint256"
        },
        {
          "indexed": false,
          "internalType": "address",
          "name": "transactionReference",
          "type": "address"
        }
      ],
      "name": "Transfer",
      "type": "event"
    },
    {
      "inputs": [],
      "name": "owner",
      "outputs": [
        {
          "internalType": "address",
          "name": "",
          "type": "address"
        }
      ],
      "stateMutability": "view",
      "type": "function"
    },
    {
      "inputs": [],
      "name": "pageSize",
      "outputs": [
        {
          "internalType": "uint256",
          "name": "",
          "type": "uint256"
        }
      ],
      "stateMutability": "view",
      "type": "function"
    },
    {
      "inputs": [
        {
          "internalType": "address",
          "name": "",
          "type": "address"
        },
        {
          "internalType": "uint256",
          "name": "",
          "type": "uint256"
        }
      ],
      "name": "transactionRecords",
      "outputs": [
        {
          "internalType": "address",
          "name": "sender",
          "type": "address"
        },
        {
          "internalType": "address",
          "name": "receiver",
          "type": "address"
        },
        {
          "internalType": "uint256",
          "name": "amount",
          "type": "uint256"
        },
        {
          "internalType": "address",
          "name": "transactionReference",
          "type": "address"
        },
        {
          "internalType": "bytes32",
          "name": "transactionType",
          "type": "bytes32"
        }
      ],
      "stateMutability": "view",
      "type": "function"
    },
    {
      "inputs": [
        {
          "internalType": "address",
          "name": "receiver",
          "type": "address"
        },
        {
          "internalType": "uint256",
          "name": "amount",
          "type": "uint256"
        },
        {
          "internalType": "bytes32",
          "name": "transactionType",
          "type": "bytes32"
        },
        {
          "internalType": "address",
          "name": "transactionReference",
          "type": "address"
        }
      ],
      "name": "transfer",
      "outputs": [],
      "stateMutability": "nonpayable",
      "type": "function"
    },
    {
      "inputs": [
        {
          "internalType": "address",
          "name": "who",
          "type": "address"
        }
      ],
      "name": "balanceOf",
      "outputs": [
        {
          "internalType": "uint256",
          "name": "balance",
          "type": "uint256"
        },
        {
          "internalType": "uint256",
          "name": "unsettledBalance",
          "type": "uint256"
        }
      ],
      "stateMutability": "view",
      "type": "function"
    },
    {
      "inputs": [
        {
          "internalType": "address",
          "name": "who",
          "type": "address"
        },
        {
          "internalType": "uint256",
          "name": "_page",
          "type": "uint256"
        }
      ],
      "name": "getTransactionRecords",
      "outputs": [
        {
          "internalType": "address[]",
          "name": "senders",
          "type": "address[]"
        },
        {
          "internalType": "address[]",
          "name": "receivers",
          "type": "address[]"
        },
        {
          "internalType": "uint256[]",
          "name": "amounts",
          "type": "uint256[]"
        },
        {
          "internalType": "address[]",
          "name": "txRefs",
          "type": "address[]"
        },
        {
          "internalType": "bytes32[]",
          "name": "txTypes",
          "type": "bytes32[]"
        }
      ],
      "stateMutability": "view",
      "type": "function"
    }
  ],
  "bytecode": "0x6080604052601460015534801561001557600080fd5b50604051610da6380380610da683398101604081905261003491610067565b60008054336001600160a01b031991821617909155600280549091166001600160a01b0392909216919091179055610095565b600060208284031215610078578081fd5b81516001600160a01b038116811461008e578182fd5b9392505050565b610d02806100a46000396000f3fe608060405234801561001057600080fd5b50600436106100625760003560e01c806304b6219b1461006757806347643402146100b657806370a08231146100cb5780638da5cb5b146100f357806394490e9a1461011e578063f1bab79d14610135575b600080fd5b61007a610075366004610ac6565b610159565b604080516001600160a01b03968716815294861660208601528401929092529092166060820152608081019190915260a0015b60405180910390f35b6100c96100c4366004610aef565b6101b6565b005b6100de6100d9366004610aa5565b610507565b604080519283526020830191909152016100ad565b600054610106906001600160a01b031681565b6040516001600160a01b0390911681526020016100ad565b61012760015481565b6040519081526020016100ad565b610148610143366004610ac6565b610590565b6040516100ad959493929190610b9a565b6003602052816000526040600020818154811061017557600080fd5b6000918252602090912060059091020180546001820154600283015460038401546004909401546001600160a01b0393841696509183169450929091169085565b6002546040516352f950a960e11b815233600482018190526001600160a01b038781166024840152604483018790529092169063a5f2a15290606401600060405180830381600087803b15801561020c57600080fd5b505af1158015610220573d6000803e3d6000fd5b50506040805160a08101825260008082526020820181905291810182905260608101829052608081019190915291506102569050565b8181600001906001600160a01b031690816001600160a01b0316815250508581602001906001600160a01b031690816001600160a01b03168152505084816040018181525050838160800181815250508281606001906001600160a01b031690816001600160a01b03168152505060036000876001600160a01b03166001600160a01b0316815260200190815260200160002081908060018154018082558091505060019003906000526020600020906005020160009091909190915060008201518160000160006101000a8154816001600160a01b0302191690836001600160a01b0316021790555060208201518160010160006101000a8154816001600160a01b0302191690836001600160a01b031602179055506040820151816002015560608201518160030160006101000a8154816001600160a01b0302191690836001600160a01b0316021790555060808201518160040155505060036000836001600160a01b03166001600160a01b0316815260200190815260200160002081908060018154018082558091505060019003906000526020600020906005020160009091909190915060008201518160000160006101000a8154816001600160a01b0302191690836001600160a01b0316021790555060208201518160010160006101000a8154816001600160a01b0302191690836001600160a01b031602179055506040820151816002015560608201518160030160006101000a8154816001600160a01b0302191690836001600160a01b031602179055506080820151816004015550507f5f2147fb558c977441fbdfebcf8cd5776606adc8da5ff95566fc2a4137e54d13828787866040516104f794939291906001600160a01b03948516815292841660208401526040830191909152909116606082015260800190565b60405180910390a1505050505050565b60025460405163180a1b9960e11b81526001600160a01b0383811660048301526000928392911690633014373290602401604080518083038186803b15801561054f57600080fd5b505afa158015610563573d6000803e3d6000fd5b505050506040513d601f19601f820116820180604052508101906105879190610b34565b91509150915091565b60608080808085156105a257856105a5565b60015b955060006001546001886105b99190610c84565b6105c39190610c65565b90506000600154886105d59190610c65565b6001600160a01b038a1660009081526003602052604090205490915082811161067557604080516001808252818301909252600091602080830190803683375050604080516001808252818301909252929350600092915060208083019080368337505060408051600180825281830190925292935060009291506020808301908036833750949c508c9b509299508a98509650610a7f95505050505050565b6001600160a01b038a16600090815260036020908152604080832080548251818502810185019093528083529192909190849084015b828210156107175760008481526020908190206040805160a0810182526005860290920180546001600160a01b039081168452600180830154821685870152600283015493850193909352600382015416606084015260040154608083015290835290920191016106ab565b50505050905081831161072a578261072c565b815b9250600061073a8585610c84565b905060008167ffffffffffffffff81111561076557634e487b7160e01b600052604160045260246000fd5b60405190808252806020026020018201604052801561078e578160200160208202803683370190505b50905060008267ffffffffffffffff8111156107ba57634e487b7160e01b600052604160045260246000fd5b6040519080825280602002602001820160405280156107e3578160200160208202803683370190505b50905060008367ffffffffffffffff81111561080f57634e487b7160e01b600052604160045260246000fd5b604051908082528060200260200182016040528015610838578160200160208202803683370190505b50905060008467ffffffffffffffff81111561086457634e487b7160e01b600052604160045260246000fd5b60405190808252806020026020018201604052801561088d578160200160208202803683370190505b50905060008567ffffffffffffffff8111156108b957634e487b7160e01b600052604160045260246000fd5b6040519080825280602002602001820160405280156108e2578160200160208202803683370190505b509050895b89811015610a67576000886108fc838e610c4d565b8151811061091a57634e487b7160e01b600052603260045260246000fd5b60200260200101519050806000015187838151811061094957634e487b7160e01b600052603260045260246000fd5b60200260200101906001600160a01b031690816001600160a01b031681525050806020015186838151811061098e57634e487b7160e01b600052603260045260246000fd5b60200260200101906001600160a01b031690816001600160a01b03168152505080604001518583815181106109d357634e487b7160e01b600052603260045260246000fd5b6020026020010181815250508060600151848381518110610a0457634e487b7160e01b600052603260045260246000fd5b60200260200101906001600160a01b031690816001600160a01b0316815250508060800151838381518110610a4957634e487b7160e01b600052603260045260246000fd5b60209081029190910101525080610a5f81610c9b565b9150506108e7565b50939d50919b50995097509550610a7f945050505050565b9295509295909350565b80356001600160a01b0381168114610aa057600080fd5b919050565b600060208284031215610ab6578081fd5b610abf82610a89565b9392505050565b60008060408385031215610ad8578081fd5b610ae183610a89565b946020939093013593505050565b60008060008060808587031215610b04578182fd5b610b0d85610a89565b93506020850135925060408501359150610b2960608601610a89565b905092959194509250565b60008060408385031215610b46578182fd5b505080516020909101519092909150565b6000815180845260208085019450808401835b83811015610b8f5781516001600160a01b031687529582019590820190600101610b6a565b509495945050505050565b600060a08252610bad60a0830188610b57565b602083820381850152610bc08289610b57565b84810360408601528751808252828901935090820190845b81811015610bf457845183529383019391830191600101610bd8565b50508481036060860152610c088188610b57565b8581036080870152865180825283880194509083019150845b81811015610c3d57845183529383019391830191600101610c21565b50909a9950505050505050505050565b60008219821115610c6057610c60610cb6565b500190565b6000816000190483118215151615610c7f57610c7f610cb6565b500290565b600082821015610c9657610c96610cb6565b500390565b6000600019821415610caf57610caf610cb6565b5060010190565b634e487b7160e01b600052601160045260246000fdfea2646970667358221220273c82e5211a12f201f6ffa3ad7963efc6fec42c55ba0509cddaae7378c0a61b64736f6c63430008020033",
  "immutableReferences": {},
  "source": "// SPDX-License-Identifier: MIT\n\npragma solidity ^0.8.2;\n\ninterface IRewardToken {\n    function transferTo(address _from, address _to, uint _value) external;\n    function balanceUnsettledOf(address who) external view returns (uint, uint);\n}\n\ncontract MicroPayment {\n\n    address public owner; // authorize transfer between two parties\n    uint public pageSize = 20;\n\n    IRewardToken private rewardToken;\n\n    struct TransactionRecord {\n        address sender;\n        address receiver;\n        uint256 amount;\n        address transactionReference;\n        bytes32 transactionType;\n    }\n\n    mapping (address => TransactionRecord[]) public transactionRecords;\n\n    constructor (address _rewardToken) {\n        owner = msg.sender;\n\n        // Contract RewardToken needs to invoke the method setAuthorized(address)\n        // where \"address\" is the address of the contract MicroPayment\n        rewardToken = IRewardToken(_rewardToken);\n    }\n\n\n    event Transfer(address sender, address receiver, uint256 amount, address transactionReference);\n\n    function transfer(address receiver, uint256 amount, bytes32 transactionType, address transactionReference) public {\n        address sender = msg.sender;\n        rewardToken.transferTo(sender, receiver, amount);\n\n        TransactionRecord memory record;\n        record.sender = sender;\n        record.receiver = receiver;\n        record.amount = amount;\n        record.transactionType = transactionType;\n        record.transactionReference = transactionReference;\n\n        transactionRecords[receiver].push(record);\n        transactionRecords[sender].push(record);\n\n        emit Transfer(sender, receiver, amount, transactionReference);\n    }\n    /**\n    * @dev Gets the balance of the specified address.\n    * @param who The address to query the balance of.\n    * return the balance and unsettled balance owned by the passed address.\n    */\n    function balanceOf(address who) public view returns (uint balance, uint unsettledBalance) {\n        return rewardToken.balanceUnsettledOf(who);\n    }\n\n    function getTransactionRecords(address who, uint _page) public view returns \n        (address[] memory senders, \n         address[] memory receivers,\n         uint256[] memory amounts,\n         address[] memory txRefs,\n         bytes32[] memory txTypes)\n    {\n        _page = _page == 0?1: _page;\n\n        uint from = (_page - 1)*pageSize;\n        uint to = _page*pageSize;\n        uint length = transactionRecords[who].length;\n\n        if(length <= from) {\n            address[] memory addList = new address[](1);\n            uint256[] memory amountList = new uint256[](1);\n            bytes32[] memory typeList = new bytes32[](1);\n            return (addList, addList, amountList, addList, typeList);\n        } else {\n            TransactionRecord[] memory records = transactionRecords[who];\n            to = to > length?length:to;\n            uint aSize = to - from;\n            address[] memory sendersList = new address[](aSize);\n            address[] memory receiversList = new address[](aSize);\n            uint256[] memory amountList = new uint256[](aSize);\n            address[] memory referenceList = new address[](aSize);\n            bytes32[] memory typeList = new bytes32[](aSize);\n\n            for(uint idx = from; idx < to; idx++) {\n                TransactionRecord memory record = records[from+idx];\n\n                sendersList[idx] = record.sender;\n                receiversList[idx] = record.receiver;\n                amountList[idx] = record.amount;\n                referenceList[idx] = record.transactionReference;\n                typeList[idx] = record.transactionType;\n            }\n\n            return (sendersList, receiversList, amountList, referenceList, typeList);\n        }\n    }\n}\n",
  "sourcePath": "/home/trung/Work/reference/morphe/task/hyperledger-besu/a-besu-project/smartcontracts/contracts/MicroPayment.sol",
  "compiler": {
    "name": "solc",
    "version": "0.8.2+commit.661d1103.Emscripten.clang"
  },
  "schemaVersion": "3.3.4",
  "updatedAt": "2021-03-23T13:57:00.671Z",
  "devdoc": {
    "kind": "dev",
    "methods": {
      "balanceOf(address)": {
        "details": "Gets the balance of the specified address.",
        "params": {
          "who": "The address to query the balance of. return the balance and unsettled balance owned by the passed address."
        }
      }
    },
    "version": 1
  },
  "userdoc": {
    "kind": "user",
    "methods": {},
    "version": 1
  }
}